:020000040800F2
:10000000002800204D120008DD110008E31100084F
:10001000E9110008EF110008F511000800000000C8
:10002000000000000000000000000000FB110008BC
:100030000712000800000000131200081F12000839
:1000400095120008951200089512000895120008F4
:1000500095120008951200089512000895120008E4
:1000600095120008951200089512000895120008D4
:1000700095120008951200089512000895120008C4
:1000800095120008951200089512000895120008B4
:1000900095120008951200089512000895120008A4
:1000A0009512000895120008951200089512000894
:1000B0002D1200089512000800000000951200089B
:1000C00095120008000000000000000095120008D2
:1000D00000000000951200089512000800000000C2
:1000E0009512000895120008951200080000000003
:1000F0000000000000000000000000000000000000
:0C01000000000000000000005FF808F1A3
:10010C0010B5054C237833B9044B13B10448AFF345
:10011C0000800123237010BD3C0000200000000073
:10012C00BC28000808B5034B1BB103490348AFF3C7
:10013C00008008BD0000000040000020BC28000822
:10014C0080B582B000AF00237B6061E0344A7B68ED
:10015C0013441978334A7B6813440A461A707B6837
:10016C00002B0AD11021304801F07AFB03461946C6
:10017C002B4A7B6813440A461A707B68012B0AD100
:10018C002021294801F06CFB03461946244A7B6860
:10019C0013440A461A70224A7B6813441A78214980
:1001AC007B680B441B789A4208D11D4A7B68134428
:1001BC0019781E4A7B6813440A461A701B4A7B68DE
:1001CC0013441B78002B16D1194A7B6832F8133074
:1001DC00632B0AD8164A7B6832F81330013399B274
:1001EC00134A7B6822F813100FE0124A7B68134401
:1001FC0001221A7009E00E4A7B68002122F81310C4
:10020C000C4A7B68134400221A707B6801337B60B4
:10021C007B68012B9ADD00BF00BF0837BD4680BD4F
:10022C005C00002060000020000801405800002005
:10023C00640000206800002080B483B000AF034647
:10024C00FB71FB79012B01D9FF2302E0FB79034AF7
:10025C00D35C18460C37BD4680BC70475800002054
:10026C0080B483B000AF0346FB71FB79012B01D93D
:10027C00FF2302E0FB79034AD35C18460C37BD46DA
:10028C0080BC70476800002080B582B000AF7860F9
:10029C007B68092B00F2808101A252F823F000BF89
:1002AC00D50200081D03000865030008AD03000813
:1002BC00F50300083D04000885040008CD0400087F
:1002CC00150500085D05000800220121B74801F062
:1002DC00DEFA00220221B54801F0D9FA00220421ED
:1002EC00B24801F0D4FA00220821B04801F0CFFA4C
:1002FC0000221021AD4801F0CAFA00222021AB489F
:10030C0001F0C5FA01224021A84801F0C0FA49E1E8
:10031C0001220121A54801F0BAFA00220221A348CA
:10032C0001F0B5FA00220421A04801F0B0FA012234
:10033C0008219E4801F0ABFA012210219B4801F0E4
:10034C00A6FA01222021994801F0A1FA01224021AC
:10035C00964801F09CFA25E100220121934801F016
:10036C0096FA00220221914801F091FA012204210F
:10037C008E4801F08CFA002208218C4801F087FA93
:10038C0000221021894801F082FA0122202187489D
:10039C0001F07DFA00224021844801F078FA01E155
:1003AC0000220121814801F072FA002202217F48CB
:1003BC0001F06DFA002204217C4801F068FA002259
:1003CC0008217A4801F063FA01221021774801F0E4
:1003DC005EFA01222021754801F059FA00224021D1
:1003EC00724801F054FADDE0012201216F4801F05E
:1003FC004EFA002202216D4801F049FA0022042134
:10040C006A4801F044FA01220821684801F03FFAD9
:10041C0001221021654801F03AFA0022202163489C
:10042C0001F035FA00224021604801F030FAB9E0C1
:10043C00002201215D4801F02AFA012202215B48C9
:10044C0001F025FA00220421584801F020FA00227C
:10045C000821564801F01BFA01221021534801F0E3
:10046C0016FA00222021514801F011FA00224021F5
:10047C004E4801F00CFA95E0002201214B4801F0A6
:10048C0006FA01220221494801F001FA0022042156
:10049C00464801F0FCF900220821444801F0F7F924
:1004AC0000221021414801F0F2F9002220213F489E
:1004BC0001F0EDF9002240213C4801F0E8F971E02F
:1004CC0000220121394801F0E2F9002202213748CB
:1004DC0001F0DDF900220421344801F0D8F90122A1
:1004EC000821324801F0D3F9012210212F4801F0E4
:1004FC00CEF9012220212D4801F0C9F90122402119
:10050C002A4801F0C4F94DE000220121274801F0EE
:10051C00BEF900220221254801F0B9F9002204217C
:10052C00224801F0B4F900220821204801F0AFF96B
:10053C00002210211D4801F0AAF9002220211B489D
:10054C0001F0A5F900224021184801F0A0F929E09A
:10055C0000220121154801F09AF9002202211348CA
:10056C0001F095F900220421104801F090F90022C5
:10057C0008210E4801F08BF9012210210B4801F0E3
:10058C0086F900222021094801F081F9002240213E
:10059C00064801F07CF905E001220821034801F02E
:1005AC0076F900BF00BF0837BD4680BD000C014086
:1005BC0080B582B000AF78607B68052B00F20081BB
:1005CC0001A252F823F000BFED0500083D0600081B
:1005DC008D060008DD0600082D0700087D070008C1
:1005EC0000224021794801F052F9012280217748FC
:1005FC0001F04DF901224FF48071744801F047F974
:10060C0001224FF40071714801F041F901224FF4BD
:10061C0080616E4801F03BF901224FF400616B4898
:10062C0001F035F96A4B1B681846FFF72DFEC8E040
:10063C0001224021654801F02AF9002280216348FB
:10064C0001F025F901224FF48071604801F01FF987
:10065C0001224FF400715D4801F019F901224FF4A9
:10066C0080615A4801F013F901224FF40061574898
:10067C0001F00DF9564B5B681846FFF705FEA0E03C
:10068C0001224021514801F002F9012280214F48FA
:10069C0001F0FDF800224FF480714C4801F0F7F89E
:1006AC0001224FF40071494801F0F1F801224FF496
:1006BC008061464801F0EBF801224FF40061434899
:1006CC0001F0E5F8424B9B681846FFF7DDFD78E03A
:1006DC00012240213D4801F0DAF8012280213B48FB
:1006EC0001F0D5F801224FF48071384801F0CFF8B1
:1006FC0000224FF40071354801F0C9F801224FF483
:10070C008061324801F0C3F801224FF400612F4898
:10071C0001F0BDF82E4BDB681846FFF7B5FD50E035
:10072C0001224021294801F0B2F8012280212748FA
:10073C0001F0ADF801224FF48071244801F0A7F8C4
:10074C0001224FF40071214801F0A1F800224FF46E
:10075C0080611E4801F09BF801224FF400611B4898
:10076C0001F095F81A4B1B691846FFF78DFD28E030
:10077C0001224021154801F08AF8012280211348FA
:10078C0001F085F801224FF48071104801F07FF8D8
:10079C0001224FF400710D4801F079F801224FF459
:1007AC0080610A4801F073F800224FF40061074899
:1007BC0001F06DF8064B5B691846FFF765FD00E02C
:1007CC0000BF00BF0837BD4680BD00BF0008014018
:1007DC001400002080B400AF4F4B1B68042B4BD18E
:1007EC004E4B1B684E4A82FB03129210DB17D31A36
:1007FC004C4A1360494B1968494B83FB01239A10EF
:10080C00CB17D21A13469B0013445B00CA1A454BF4
:10081C005A60454B1B68424A82FB03129210DB174D
:10082C00D31A404A9360404B19683D4B83FB01231C
:10083C009A10CB17D21A13469B0013445B00CA1AAA
:10084C00384BDA60394B1B68354A82FB0312921025
:10085C00DB17D31A334A1361344B1968304B83FBC3
:10086C0001239A10CB17D21A13469B0013445B003A
:10087C00CA1A2C4B5A614AE02D4B1B68284A82FB42
:10088C0003129210DB17D31A264A1360284B1968EF
:10089C00234B83FB01239A10CB17D21A13469B00D0
:1008AC0013445B00CA1A1F4B5A60214B5B681C4AED
:1008BC0082FB03129210DB17D31A1A4A93601C4B5B
:1008CC005968174B83FB01239A10CB17D21A134686
:1008DC009B0013445B00CA1A124BDA60144B9B68E2
:1008EC000F4A82FB03129210DB17D31A0D4A1361C5
:1008FC000F4B99680A4B83FB01239A10CB17D21A22
:10090C0013469B0013445B00CA1A064B5A6100BF86
:10091C00BD4680BC704700BF000000207400002062
:10092C006766666614000020780000207C000020BA
:10093C000800002080B483B000AF7860074B1B68C0
:10094C007A6892FBF3F3064A1360064B00221A6096
:10095C0000BF0C37BD4680BC704700BF2C00002088
:10096C00800000208400002080B483B000AF786049
:10097C00074B1B687A6892FBF3F3064A1360064B2D
:10098C0000221A6000BF0C37BD4680BC704700BF08
:10099C002C000020880000208C00002080B400AFC8
:1009AC00114B1B68002B0BDD0F4B1B68013B0E4AD8
:1009BC0013600D4B1B68002B02D10C4B01221A60EB
:1009CC000B4B1B68002B0BDD094B1B68013B084ACA
:1009DC001360074B1B68002B02D1064B01221A60D7
:1009EC0000BFBD4680BC7047800000208400002002
:1009FC00880000208C00002080B500AF544B1B6891
:100A0C00042B00F28A8001A252F823F02D0A000870
:100A1C005F0A0008910A0008C30A0008F50A0008DA
:100A2C0001224FF480514B4800F031FF01224FF46A
:100A3C000051484800F02BFF01224FF480414548FB
:100A4C0000F025FF01224FF40041424800F01FFF47
:100A5C007CE000224FF480513E4800F018FF012248
:100A6C004FF400513B4800F012FF01224FF480413B
:100A7C00384800F00CFF01224FF40041354800F0DB
:100A8C0006FF63E001224FF48051324800F0FFFE74
:100A9C0000224FF400512F4800F0F9FE01224FF4D0
:100AAC0080412C4800F0F3FE01224FF4004129480C
:100ABC0000F0EDFE4AE001224FF48051254800F091
:100ACC00E6FE01224FF40051224800F0E0FE002225
:100ADC004FF480411F4800F0DAFE01224FF4004130
:100AEC001C4800F0D4FE31E001224FF4805119482B
:100AFC0000F0CDFE01224FF40051164800F0C7FE65
:100B0C0001224FF48041134800F0C1FE00224FF443
:100B1C000041104800F0BBFE18E001224FF4805158
:100B2C000C4800F0B4FE01224FF40051094800F0CB
:100B3C00AEFE01224FF48041064800F0A8FE0122CF
:100B4C004FF40041034800F0A2FE00BF00BF80BD7F
:100B5C00000000200008014080B500AFFFF74CFFFB
:100B6C001E4B1B78002B02D0012B27D033E000202A
:100B7C00FFF762FB0346002B2AD1184B01221A7097
:100B8C00174B1B68042B03D1154B00221A6004E091
:100B9C00134B1B680133124A1360114B1B68042B57
:100BAC0016D1104B00221A600F4B00221A600F4B0B
:100BBC0000221A600E4B00221A6009E00020FFF799
:100BCC003BFB0346012B05D1044B00221A7001E0BC
:100BDC0000BF00E000BF00BF80BD00BF6A00002066
:100BEC000000002074000020780000207C00002011
:100BFC007000002080B500AF374B1B78022B54D00F
:100C0C00022B5FDC002B02D0012B37D05AE00120E5
:100C1C00FFF712FB0346002B56D12F4B01221A7003
:100C2C002E4B1B68012B07D02C4B1B68022B03D0BF
:100C3C002A4B1B68032B09D1284B1B68013B284A04
:100C4C0052F823200132264941F82320234B1B68FC
:100C5C00042B05D1234B1B68C3F10103214A1360FC
:100C6C00204B1B68002B2FD11F4B00221A601F4BEF
:100C7C0000221A601E4B00221A6025E00120FFF7AB
:100C8C00DBFA0346012B03D1134B00221A701DE033
:100C9C000120FFF7E5FA0346012B17D10E4B022278
:100CAC001A70144B01221A6010E00120FFF7C4FAED
:100CBC000346012B0CD1084B00221A700D4B00225D
:100CCC001A6005E000BF04E000BF02E000BF00E0D6
:100CDC0000BF00BF80BD00BF6B00002000000020E3
:100CEC0008000020700000207C000020780000200C
:100CFC00740000206C00002080B582B000AF00F0C2
:100D0C00C5FA00F099F800F01FF900F0D1F8454849
:100D1C0001F00EFA0A20FFF70DFE0A20FFF724FE61
:100D2C0000237B6009233B60FFF716FFFFF762FF90
:100D3C003D4B1B68012B46D13C4B1B68012B0BD147
:100D4C003B68012B27D17B68002B02D07B68012BE1
:100D5C0021D102237B601EE0344B1B68022B0BD18C
:100D6C003B68012B17D17B68022B02D07B68032BCD
:100D7C0011D104237B600EE02C4B1B68032B0AD192
:100D8C003B68012B07D17B68042B02D07B68052BB9
:100D9C0001D100237B607868FFF70AFCC820FFF7BD
:100DAC00E3FD7B68052B02D100237B6002E07B68AE
:100DBC0001337B603B68002B02D109233B6002E0CE
:100DCC003B68013B3B601A4B1B68012BACD1194BA8
:100DDC009B680133174A9360164B9B683B2B07DDCE
:100DEC00144B00229A60134B5B680133114A536019
:100DFC00104B5B683B2B07DD0E4B00225A600D4BF2
:100E0C001B6801330B4A13600A4B1B68172B02DD5E
:100E1C00084B00221A60FFF7DDFC4FF47A70FFF7E5
:100E2C0089FD81E7900000208C000020000000204C
:100E3C00840000200800002080B590B000AF07F1BE
:100E4C00180328220021184601F02AFD3B1D002220
:100E5C001A605A609A60DA601A610223BB6101233E
:100E6C00BB621023FB6200237B6307F11803184657
:100E7C0000F026FD0346002B01D000F04DF90F23A6
:100E8C007B600023BB600023FB6000233B610023DD
:100E9C007B613B1D0021184600F092FF0346002B9E
:100EAC0001D000F039F900BF4037BD4680BD0000CD
:100EBC0080B586B000AF07F1080300221A605A60B3
:100ECC009A60DA603B4600221A605A601D4B4FF064
:100EDC0080421A601B4B41F63F725A60194B00223C
:100EEC009A60184B0922DA60164B00221A61154BD6
:100EFC0000229A61134801F0CBF80346002B01D075
:100F0C0000F00AF94FF48053BB6007F1080319464F
:100F1C000C4801F061FA0346002B01D000F0FCF8FC
:100F2C0000233B6000237B603B461946054801F0DB
:100F3C0029FC0346002B01D000F0EEF800BF183757
:100F4C00BD4680BD9000002080B588B000AF07F191
:100F5C00100300221A605A609A60DA602D4B9B696C
:100F6C002C4A43F0200393612A4B9B6903F0200326
:100F7C00FB60FB68274B9B69264A43F00403936193
:100F8C00244B9B6903F00403BB60BB68214B9B693A
:100F9C00204A43F0080393611E4B9B6903F008033E
:100FAC007B607B6800224FF6C0711B4800F06FFC21
:100FBC0000227F21194800F06AFC30233B6100239A
:100FCC007B610023BB6107F110031946124800F046
:100FDC00CDFA4FF6C0733B6101237B610023BB61EB
:100FEC000223FB6107F1100319460B4800F0BEFA0F
:100FFC007F233B6101237B610023BB610223FB61E7
:10100C0007F110031946054800F0B0FA00BF20376D
:10101C00BD4680BD0010024000080140000C01409C
:10102C0080B582B000AF7860FFF7B8FCFFF788F8A6
:10103C00304B1B68013B2F4A13602E4B1B68002B57
:10104C0002DC2C4B64221A602B4B1B68012B20D129
:10105C00284B1968294B83FB0123DA10CB17D21AC2
:10106C0013469B0013449B00CA1A002A11D1244B2F
:10107C001B68002B0DDD224B1B68032B09DC204B5E
:10108C001B68013B1F4A52F8232001321D4941F8CD
:10109C0023201B4B1B68042B08D11B4B1B68012BFB
:1010AC0004D11A4B1B680133184A1360174B1B6889
:1010BC00642B07DD154B00221A60154B1B6801339E
:1010CC00134A1360124B1B683C2B07DD104B00229C
:1010DC001A60104B1B6801330E4A13600D4B1B68D2
:1010EC003C2B02DD0B4B00221A6000BF0837BD46BB
:1010FC0080BD00BF040000206C000020676666669F
:10110C000000002008000020700000207C0000205F
:10111C00780000207400002080B400AF72B600BFCD
:10112C00FEE7000080B485B000AF154B9B69144AF4
:10113C0043F001039361124B9B6903F00103BB6005
:10114C00BB680F4BDB690E4A43F08053D3610C4BE9
:10115C00DB6903F080537B607B680A4B5B68FB6048
:10116C00FB6823F0E063FB60FB6843F08063FB608B
:10117C00044AFB68536000BF1437BD4680BC7047FF
:10118C00001002400000014080B584B000AF7860D0
:10119C007B681B68B3F1804F13D10C4BDB690B4A96
:1011AC0043F00103D361094BDB6903F00103FB60DE
:1011BC00FB68002200211C2000F0A1F91C2000F08B
:1011CC00BAF900BF1037BD4680BD00BF0010024009
:1011DC0080B400AFFEE780B400AFFEE780B400AF90
:1011EC00FEE780B400AFFEE780B400AFFEE780B44A
:1011FC0000AF00BFBD4680BC704780B400AF00BFDD
:10120C00BD4680BC704780B400AF00BFBD4680BCFB
:10121C00704780B500AF00F07FF800BF80BD0000C4
:10122C0080B500AF024800F0CFFF00BF80BD00BF0B
:10123C009000002080B400AF00BFBD4680BC70475A
:10124C000C480D490D4A002302E0D458C450043315
:10125C00C4188C42F9D30A4A0A4C002301E01360EB
:10126C000432A242FBD3FFF7E5FF01F0F5FAFFF7DA
:10127C0043FD7047000000203C000020FC280008C3
:10128C003C000020DC000020FEE7000080B500AF31
:10129C00084B1B68074A43F010031360032000F04F
:1012AC0023F9002000F008F8FFF73CFF0023184654
:1012BC0080BD00BF0020024080B582B000AF7860D6
:1012CC00124B1A68124B1B7819464FF47A73B3FB06
:1012DC00F1F3B2FBF3F3184600F03BF90346002B95
:1012EC0001D001230EE07B680F2B0AD8002279680D
:1012FC004FF0FF3000F003F9064A7B6813600023BF
:10130C0000E0012318460837BD4680BD30000020A0
:10131C00380000203400002080B400AF054B1B784F
:10132C001A46054B1B681344034A136000BFBD46A5
:10133C0080BC704738000020D800002080B400AF7B
:10134C00024B1B681846BD4680BC7047D800002075
:10135C0080B485B000AF78607B6803F00703FB6056
:10136C000C4BDB68BB60BA684FF6FF031340BB60E5
:10137C00FB681A02BB68134343F0BF6343F40033AA
:10138C00BB60044ABB68D36000BF1437BD4680BC49
:10139C00704700BF00ED00E080B400AF044BDB6889
:1013AC001B0A03F007031846BD4680BC704700BFFC
:1013BC0000ED00E080B483B000AF0346FB7197F9F9
:1013CC000730002B0BDBFB7903F01F02064997F962
:1013DC0007305B09012000FA02F241F8232000BF1C
:1013EC000C37BD4680BC704700E100E080B483B090
:1013FC0000AF03463960FB7197F90730002B0ADB0D
:10140C003B68DAB20C4997F907301201D2B20B449F
:10141C0083F800230AE03B68DAB20849FB7903F051
:10142C000F03043B1201D2B20B441A7600BF0C37E7
:10143C00BD4680BC704700BF00E100E000ED00E05D
:10144C0080B489B000AFF860B9607A60FB6803F0D3
:10145C000703FB61FB69C3F10703042B28BF0423BB
:10146C00BB61FB690433062B02D9FB69033B00E02B
:10147C0000237B614FF0FF32BB6902FA03F3DA43BE
:10148C00BB681A407B699A404FF0FF317B6901FAC7
:10149C0003F3D9437B680B40134318462437BD46EE
:1014AC0080BC704780B582B000AF78607B68013B30
:1014BC00B3F1807F01D301230FE00A4A7B68013B23
:1014CC0053600F214FF0FF30FFF790FF054B0022C8
:1014DC009A60044B07221A60002318460837BD4651
:1014EC0080BD00BF10E000E080B582B000AF786036
:1014FC007868FFF72DFF00BF0837BD4680BD80B56B
:10150C0086B000AF0346B9607A60FB7300237B6141
:10151C00FFF742FF78617A68B9687869FFF790FF46
:10152C00024697F90F3011461846FFF75FFF00BFD0
:10153C001837BD4680BD80B582B000AF0346FB7145
:10154C0097F907301846FFF735FF00BF0837BD463F
:10155C0080BD80B582B000AF78607868FFF7A2FFDD
:10156C00034618460837BD4680BD000080B48BB0DA
:10157C0000AF7860396000237B6200233B6248E156
:10158C0001227B6A02FA03F3FB613B681B68FA6970
:10159C001340BB61BA69FB699A4240F037813B68E2
:1015AC005B68A34A93425ED0A14A934275D8A14A84
:1015BC00934258D09F4A93426FD89F4A934252D03D
:1015CC009D4A934269D89D4A93424CD09B4A934280
:1015DC0063D89B4A934246D0994A93425DD8122BCA
:1015EC002AD8122B59D801A252F823F073160008EE
:1015FC004D1600085F160008A1160008A716000873
:10160C00A7160008A7160008A7160008A7160008BA
:10161C00A7160008A7160008A7160008A7160008AA
:10162C00A7160008A7160008A7160008A71600089A
:10163C005516000869160008824A934213D02CE014
:10164C003B68DB683B6229E03B68DB6804333B6248
:10165C0024E03B68DB6808333B621FE03B68DB68D7
:10166C000C333B621AE03B689B68002B02D10423CD
:10167C003B6213E03B689B68012B05D108233B625E
:10168C007B68FA691A6109E008233B627B68FA6996
:10169C005A6103E000233B6200E000BFBB69FF2BF3
:1016AC0001D87B6801E07B6804337B61BB69FF2B4D
:1016BC0002D87B6A9B0002E07B6A083B9B003B6183
:1016CC007B691A680F213B6901FA03F3DB431A406B
:1016DC00396A3B6901FA03F31A437B691A603B6868
:1016EC005B6803F08053002B00F09080564B9B6995
:1016FC00554A43F001039361534B9B6903F001037B
:10170C00BB60BB68514A7B6A9B08023352F823309A
:10171C00FB607B6A03F003039B000F2202FA03F3C6
:10172C00DB43FA681340FB607B68494A93420DD057
:10173C007B68484A934207D07B68474A934201D161
:10174C00022304E0032302E0012300E000237A6A71
:10175C0002F0030292009340FA681343FB603B498A
:10176C007B6A9B080233FA6841F823203B685B686C
:10177C0003F48033002B06D0384B1A683749BB6909
:10178C0013430B6006E0354B1A68BB69DB433349E6
:10179C0013400B603B685B6803F40033002B06D0EE
:1017AC002E4B5A682D49BB6913434B6006E02B4BFB
:1017BC005A68BB69DB43294913404B603B685B6843
:1017CC0003F48013002B06D0244B9A682349BB6981
:1017DC0013438B6006E0214B9A68BB69DB431F49BE
:1017EC0013408B603B685B6803F40013002B06D03E
:1017FC001A4BDA681949BB691343CB6006E0174BE7
:10180C00DA68BB69DB4315491340CB607B6A013353
:10181C007B623B681A687B6A22FA03F3002B7FF425
:10182C00AFAE00BF00BF2C37BD4680BC704700BFB9
:10183C0000003210000031100000221000002110B6
:10184C0000001210000011100010024000000140B6
:10185C0000080140000C0140001001400004014050
:10186C0080B485B000AF78600B467B807B689A684B
:10187C007B881340002B02D00123FB7301E0002373
:10188C00FB73FB7B18461437BD4680BC704780B495
:10189C0083B000AF78600B467B8013467B707B78FF
:1018AC00002B03D07A887B681A6103E07B881A04CA
:1018BC007B681A6100BF0C37BD4680BC70470000C6
:1018CC0080B586B000AF78607B68002B01D1012316
:1018DC006CE27B681B6803F00103002B00F087802F
:1018EC00924B5B6803F00C03042B0CD08F4B5B68A2
:1018FC0003F00C03082B12D18C4B5B6803F4803380
:10190C00B3F5803F0BD1894B1B6803F40033002BDC
:10191C006CD07B685B68002B68D1012346E27B6846
:10192C005B68B3F5803F06D1804B1B687F4A43F45C
:10193C00803313602EE07B685B68002B0CD17B4BF3
:10194C001B687A4A23F480331360784B1B68774A00
:10195C0023F4802313601DE07B685B68B3F5A02F34
:10196C000CD1724B1B68714A43F4802313606F4B8C
:10197C001B686E4A43F4803313600BE06B4B1B689F
:10198C006A4A23F480331360684B1B68674A23F45C
:10199C00802313607B685B68002B13D0FFF7CEFCB1
:1019AC00386108E0FFF7CAFC02463B69D31A642B86
:1019BC0001D90323FAE15D4B1B6803F40033002BC0
:1019CC00F0D014E0FFF7BAFC386108E0FFF7B6FC82
:1019DC0002463B69D31A642B01D90323E6E1534B2E
:1019EC001B6803F40033002BF0D100E000BF7B68D0
:1019FC001B6803F00203002B63D04C4B5B6803F0B5
:101A0C000C03002B0BD0494B5B6803F00C03082B29
:101A1C001CD1464B5B6803F48033002B16D1434B2F
:101A2C001B6803F00203002B05D07B681B69012B9C
:101A3C0001D00123BAE13D4B1B6823F0F8027B680F
:101A4C005B69DB00394913430B603AE07B681B6927
:101A5C00002B20D0364B01221A60FFF76FFC386147
:101A6C0008E0FFF76BFC02463B69D31A022B01D945
:101A7C0003239BE12D4B1B6803F00203002BF0D0DA
:101A8C002A4B1B6823F0F8027B685B69DB00274953
:101A9C0013430B6015E0264B00221A60FFF74EFC37
:101AAC00386108E0FFF74AFC02463B69D31A022B67
:101ABC0001D903237AE11D4B1B6803F00203002BB1
:101ACC00F0D17B681B6803F00803002B3AD07B68CD
:101ADC009B69002B19D0174B01221A60FFF72EFCC3
:101AEC00386108E0FFF72AFC02463B69D31A022B47
:101AFC0001D903235AE10D4B5B6A03F00203002B5F
:101B0C00F0D0012000F0A6FA1CE00A4B00221A606B
:101B1C00FFF714FC38610FE0FFF710FC02463B693D
:101B2C00D31A022B08D9032340E100BF0010024056
:101B3C0000004242800442429E4B5B6A03F0020367
:101B4C00002BE9D17B681B6803F00403002B00F029
:101B5C00A6800023FB75974BDB6903F08053002BA9
:101B6C000DD1944BDB69934A43F08053D361914B75
:101B7C00DB6903F08053BB60BB680123FB758E4BA4
:101B8C001B6803F48073002B18D18B4B1B688A4A9B
:101B9C0043F480731360FFF7D1FB386108E0FFF763
:101BAC00CDFB02463B69D31A642B01D90323FDE01C
:101BBC00814B1B6803F48073002BF0D07B68DB68CF
:101BCC00012B06D17B4B1B6A7A4A43F0010313624B
:101BDC002DE07B68DB68002B0CD1764B1B6A754AB9
:101BEC0023F001031362734B1B6A724A23F0040344
:101BFC0013621CE07B68DB68052B0CD16D4B1B6AF8
:101C0C006C4A43F0040313626A4B1B6A694A43F043
:101C1C00010313620BE0674B1B6A664A23F0010356
:101C2C001362644B1B6A634A23F0040313627B68E0
:101C3C00DB68002B15D0FFF781FB38610AE0FFF75A
:101C4C007DFB02463B69D31A41F28832934201D99B
:101C5C000323ABE0574B1B6A03F00203002BEED0BF
:101C6C0014E0FFF76BFB38610AE0FFF767FB0246F5
:101C7C003B69D31A41F28832934201D9032395E090
:101C8C004C4B1B6A03F00203002BEED1FB7D012BA6
:101C9C0005D1484BDB69474A23F08053D3617B68FD
:101CAC00DB69002B00F08180424B5B6803F00C0376
:101CBC00082B61D07B68DB69022B46D13F4B00229D
:101CCC001A60FFF73BFB386108E0FFF737FB024671
:101CDC003B69D31A022B01D9032367E0354B1B68F0
:101CEC0003F00073002BF0D17B681B6AB3F5803FC7
:101CFC0008D1304B5B6823F400327B689B682D491C
:101D0C0013434B602B4B5B6823F474127B68196A8A
:101D1C007B685B6A0B43274913434B60274B0122BB
:101D2C001A60FFF70BFB386108E0FFF707FB024670
:101D3C003B69D31A022B01D9032337E01D4B1B68D7
:101D4C0003F00073002BF0D02FE01C4B00221A6024
:101D5C00FFF7F4FA386108E0FFF7F0FA02463B6946
:101D6C00D31A022B01D9032320E0124B1B6803F07A
:101D7C000073002BF0D118E07B68DB69012B01D1DB
:101D8C00012313E00B4B5B68FB60FB6803F48032B0
:101D9C007B681B6A9A4206D1FB6803F470127B685D
:101DAC005B6A9A4201D0012300E0002318461837E1
:101DBC00BD4680BD001002400070004060004242F1
:101DCC0080B584B000AF786039607B68002B01D19E
:101DDC000123D0E06A4B1B6803F007033A689A4270
:101DEC0010D9674B1B6823F0070265493B68134306
:101DFC000B60634B1B6803F007033A689A4201D0EF
:101E0C000123B8E07B681B6803F00203002B20D091
:101E1C007B681B6803F00403002B05D0594B5B68EF
:101E2C00584A43F4E06353607B681B6803F0080373
:101E3C00002B05D0534B5B68524A43F460535360FC
:101E4C00504B5B6823F0F0027B689B684D49134351
:101E5C004B607B681B6803F00103002B40D07B6850
:101E6C005B68012B07D1474B1B6803F40033002B35
:101E7C0015D101237FE07B685B68022B07D1414BB6
:101E8C001B6803F00073002B09D1012373E03D4B59
:101E9C001B6803F00203002B01D101236BE0394BCB
:101EAC005B6823F003027B685B68364913434B6025
:101EBC00FFF744FAF8600AE0FFF740FA0246FB68C5
:101ECC00D31A41F28832934201D9032353E02D4BAC
:101EDC005B6803F00C027B685B689B009A42EBD159
:101EEC00274B1B6803F007033A689A4210D2244B25
:101EFC001B6823F0070222493B6813430B60204BFD
:101F0C001B6803F007033A689A4201D0012332E0C0
:101F1C007B681B6803F00403002B08D0194B5B682B
:101F2C0023F4E0627B68DB68164913434B607B68E3
:101F3C001B6803F00803002B09D0124B5B6823F4D9
:101F4C0060527B681B69DB000E4913434B6000F049
:101F5C0021F802460B4B5B681B0903F00F030A497F
:101F6C00CB5C22FA03F3094A1360094B1B68184631
:101F7C00FFF7A2F9002318461037BD4680BD00BFFD
:101F8C000020024000100240E4280008300000202D
:101F9C003400002090B48AB000AF2A4B3C1D0FCB0C
:101FAC0084E80F0040F201233B800023FB610023F7
:101FBC00BB6100237B6200237B6100233B62224BCD
:101FCC005B68FB61FB6903F00C03042B02D0082B4C
:101FDC0003D02DE01D4B3B622DE0FB699B0C03F005
:101FEC000F0307F12802134413F8243C7B61FB69AF
:101FFC0003F48033002B13D0134B5B685B0C03F0A2
:10200C00010307F12802134413F8283CBB617B69D8
:10201C000E4A02FB03F2BB69B2FBF3F37B6204E0F2
:10202C007B690B4A02FB03F37B627B6A3B6202E037
:10203C00064B3B6200BF3B6A18462837BD4690BC36
:10204C00704700BFD42800080010024000127A002C
:10205C0000093D0080B485B000AF78600A4B1B6866
:10206C000A4AA2FB03235B0A7A6802FB03F3FB60B8
:10207C0000BFFB685A1EFA60002BF9D100BF00BFED
:10208C001437BD4680BC704730000020D34D621021
:10209C0080B582B000AF78607B68002B01D1012342
:1020AC0041E07B6893F83D30DBB2002B06D17B68B6
:1020BC00002283F83C207868FFF766F87B680222E0
:1020CC0083F83D207B681A687B68043319461046F8
:1020DC0000F06AFA7B68012283F846207B680122B3
:1020EC0083F83E207B68012283F83F207B68012225
:1020FC0083F840207B68012283F841207B68012211
:10210C0083F842207B68012283F843207B680122FC
:10211C0083F844207B68012283F845207B680122E8
:10212C0083F83D20002318460837BD4680BD0000CB
:10213C0080B485B000AF78607B6893F83D30DBB23B
:10214C00012B01D0012335E07B68022283F83D206E
:10215C007B681B68DA687B681B6842F00102DA60F6
:10216C007B681B68164A934209D07B681B68B3F1E5
:10217C00804F04D07B681B68124A934211D17B6854
:10218C001B689B6803F00703FB60FB68062B10D0F1
:10219C007B681B681A687B681B6842F001021A6036
:1021AC0007E07B681B681A687B681B6842F00102B9
:1021BC001A60002318461437BD4680BC704700BF18
:1021CC00002C01400004004080B582B000AF786064
:1021DC007B681B681B6903F00203022B22D17B680E
:1021EC001B68DB6803F00203022B1BD17B681B68A6
:1021FC006FF002021A617B6801221A777B681B68F8
:10220C009B6903F00303002B03D0786800F0B1F94D
:10221C0005E0786800F0A4F9786800F0B3F97B6801
:10222C0000221A777B681B681B6903F00403042BDC
:10223C0022D17B681B68DB6803F00403042B1BD1E1
:10224C007B681B686FF004021A617B6802221A77A4
:10225C007B681B689B6903F44073002B03D0786880
:10226C0000F087F905E0786800F07AF9786800F0FA
:10227C0089F97B6800221A777B681B681B6903F05D
:10228C000803082B22D17B681B68DB6803F008036A
:10229C00082B1BD17B681B686FF008021A617B68E6
:1022AC0004221A777B681B68DB6903F00303002B9D
:1022BC0003D0786800F05DF905E0786800F050F91B
:1022CC00786800F05FF97B6800221A777B681B68DE
:1022DC001B6903F01003102B22D17B681B68DB6891
:1022EC0003F01003102B1BD17B681B686FF01002DE
:1022FC001A617B6808221A777B681B68DB6903F418
:10230C004073002B03D0786800F033F905E078684F
:10231C0000F026F9786800F035F97B6800221A770E
:10232C007B681B681B6903F00103012B0ED17B68D2
:10233C001B68DB6803F00103012B07D17B681B686A
:10234C006FF001021A617868FEF76AFE7B681B6801
:10235C001B6903F08003802B0ED17B681B68DB6844
:10236C0003F08003802B07D17B681B686FF0800221
:10237C001A61786800F067FA7B681B681B6903F0C8
:10238C004003402B0ED17B681B68DB6803F04003D5
:10239C00402B07D17B681B686FF040021A6178688C
:1023AC0000F0F9F87B681B681B6903F02003202BF5
:1023BC000ED17B681B68DB6803F02003202B07D150
:1023CC007B681B686FF020021A61786800F032FAA3
:1023DC0000BF0837BD4680BD80B584B000AF7860C3
:1023EC0039607B6893F83C30012B01D10223B3E0B8
:1023FC007B68012283F83C207B68022283F83D2015
:10240C007B681B689B68FB60FB6823F07703FB60B1
:10241C00FB6823F47F43FB607B681B68FA689A6057
:10242C003B681B68B3F5005F3ED0B3F5005F00F26C
:10243C008780B3F5805F00F08580B3F5805F7FD82F
:10244C00702B1AD0702B7BD8602B50D0602B77D888
:10245C00502B3CD0502B73D8402B58D0402B6FD8DE
:10246C00302B64D0302B6BD8202B60D0202B67D82E
:10247C00002B5CD0102B5AD062E07B6818683B684C
:10248C0099683B685A683B68DB6800F05CF97B68CC
:10249C001B689B68FB60FB6843F07703FB607B6801
:1024AC001B68FA689A604EE07B6818683B6899680C
:1024BC003B685A683B68DB6800F045F97B681B6831
:1024CC009A687B681B6842F480429A603BE07B68A8
:1024DC0018683B6859683B68DB681A4600F0BCF822
:1024EC007B681B685021184600F013F92BE07B68C1
:1024FC0018683B6859683B68DB681A4600F0DAF8E4
:10250C007B681B686021184600F003F91BE07B68B0
:10251C0018683B6859683B68DB681A4600F09CF801
:10252C007B681B684021184600F0F3F80BE07B68D1
:10253C001A683B681B681946104600F0EAF802E07E
:10254C0000BF00E000BF7B68012283F83D207B6860
:10255C00002283F83C20002318461037BD4680BD6E
:10256C0080B483B000AF786000BF0C37BD4680BC30
:10257C00704780B483B000AF786000BF0C37BD46A5
:10258C0080BC704780B483B000AF786000BF0C375C
:10259C00BD4680BC704780B483B000AF786000BF8C
:1025AC000C37BD4680BC704780B485B000AF7860F6
:1025BC0039607B681B68FB607B68254A934207D0B7
:1025CC007B68B3F1804F03D07B68224A934208D1D9
:1025DC00FB6823F07003FB603B685B68FA6813438D
:1025EC00FB607B681A4A934207D07B68B3F1804F3B
:1025FC0003D07B68174A934208D1FB6823F44073DD
:10260C00FB603B68DB68FA681343FB60FB6823F0F4
:10261C0080023B685B691343FB607B68FA681A6055
:10262C003B689A687B68DA623B681A687B689A62D6
:10263C007B68074A934203D13B681A697B681A632B
:10264C007B6801225A6100BF1437BD4680BC7047BD
:10265C00002C01400004004080B487B000AFF8604B
:10266C00B9607A60FB681B6A7B61FB681B6A23F0AC
:10267C000102FB681A62FB689B693B613B6923F0B2
:10268C00F0033B617B681B013A6913433B617B6937
:10269C0023F00A037B617A69BB6813437B61FB6897
:1026AC003A699A61FB687A691A6200BF1C37BD46A9
:1026BC0080BC704780B487B000AFF860B9607A60B6
:1026CC00FB681B6A23F01002FB681A62FB689B69AB
:1026DC007B61FB681B6A3B617B6923F470437B6104
:1026EC007B681B037A6913437B613B6923F0A0036E
:1026FC003B61BB681B013A6913433B61FB687A6918
:10270C009A61FB683A691A6200BF1C37BD4680BCEF
:10271C00704780B485B000AF786039607B689B6887
:10272C00FB60FB6823F07003FB603A68FB681343A3
:10273C0043F00703FB607B68FA689A6000BF1437AC
:10274C00BD4680BC704780B487B000AFF860B960FC
:10275C007A603B60FB689B687B617B6923F47F43F9
:10276C007B613B681A027B681A43BB6813437A6926
:10277C0013437B61FB687A699A6000BF1C37BD46C6
:10278C0080BC704780B485B000AF786039607B68DE
:10279C0093F83C30012B01D1022341E07B680122EC
:1027AC0083F83C207B68022283F83D207B681B6801
:1027BC005B68FB607B681B689B68BB60FB6823F0F5
:1027CC007003FB603B681B68FA681343FB607B6813
:1027DC001B68FA685A607B681B68144A934209D0DC
:1027EC007B681B68B3F1804F04D07B681B68104A70
:1027FC0093420CD1BB6823F08003BB603B685B68E1
:10280C00BA681343BB607B681B68BA689A607B68C4
:10281C00012283F83D207B68002283F83C200023B2
:10282C0018461437BD4680BC704700BF002C0140D1
:10283C000004004080B483B000AF786000BF0C3758
:10284C00BD4680BC704780B483B000AF786000BFD9
:10285C000C37BD4680BC704770B500260C4D0D4C36
:10286C00641BA410A64209D100F022F800260A4DE0
:10287C000A4C641BA410A64205D170BD55F8043B4C
:10288C0098470136EEE755F8043B98470136F2E7D6
:10289C00F4280008F4280008F4280008F828000898
:1028AC0003460244934200D1704703F8011BF9E739
:1028BC00F8B500BFF8BC08BC9E467047F8B500BF21
:0828CC00F8BC08BC9E467047F1
:1028D40002030405060708090A0B0C0D0E0F10105D
:1028E40000000000000000000102030406070809BC
:0428F40031010008A6
:0428F8000D010008C6
:1028FC00FFFFFFFF640000000F0000000800000055
:10290C003200000001000000020000000300000083
:10291C000400000005000000060000000A00000092
:0C292C000024F400100000000100000076
:040000050800124D90
:00000001FF
